{
  "contractName": "VotingContract",
  "abi": [
    {
      "inputs": [],
      "stateMutability": "nonpayable",
      "type": "constructor"
    },
    {
      "anonymous": false,
      "inputs": [
        {
          "indexed": true,
          "internalType": "address",
          "name": "newAdmin",
          "type": "address"
        }
      ],
      "name": "AdminAdded",
      "type": "event"
    },
    {
      "anonymous": false,
      "inputs": [
        {
          "indexed": true,
          "internalType": "address",
          "name": "removedAdmin",
          "type": "address"
        }
      ],
      "name": "AdminRemoved",
      "type": "event"
    },
    {
      "anonymous": false,
      "inputs": [
        {
          "indexed": false,
          "internalType": "address",
          "name": "owner",
          "type": "address"
        }
      ],
      "name": "ContractDeployed",
      "type": "event"
    },
    {
      "anonymous": false,
      "inputs": [
        {
          "indexed": true,
          "internalType": "address",
          "name": "voter",
          "type": "address"
        },
        {
          "indexed": false,
          "internalType": "string",
          "name": "candidateId",
          "type": "string"
        },
        {
          "indexed": false,
          "internalType": "string",
          "name": "province",
          "type": "string"
        }
      ],
      "name": "VoteCast",
      "type": "event"
    },
    {
      "anonymous": false,
      "inputs": [
        {
          "indexed": false,
          "internalType": "string",
          "name": "province",
          "type": "string"
        },
        {
          "indexed": false,
          "internalType": "uint256",
          "name": "totalVotes",
          "type": "uint256"
        }
      ],
      "name": "VotesMinted",
      "type": "event"
    },
    {
      "inputs": [
        {
          "internalType": "address",
          "name": "",
          "type": "address"
        }
      ],
      "name": "admins",
      "outputs": [
        {
          "internalType": "bool",
          "name": "",
          "type": "bool"
        }
      ],
      "stateMutability": "view",
      "type": "function",
      "constant": true
    },
    {
      "inputs": [
        {
          "internalType": "uint256",
          "name": "",
          "type": "uint256"
        }
      ],
      "name": "candidateIds",
      "outputs": [
        {
          "internalType": "string",
          "name": "",
          "type": "string"
        }
      ],
      "stateMutability": "view",
      "type": "function",
      "constant": true
    },
    {
      "inputs": [
        {
          "internalType": "string",
          "name": "",
          "type": "string"
        },
        {
          "internalType": "string",
          "name": "",
          "type": "string"
        }
      ],
      "name": "candidateProvinceVotes",
      "outputs": [
        {
          "internalType": "uint256",
          "name": "",
          "type": "uint256"
        }
      ],
      "stateMutability": "view",
      "type": "function",
      "constant": true
    },
    {
      "inputs": [
        {
          "internalType": "string",
          "name": "",
          "type": "string"
        }
      ],
      "name": "candidates",
      "outputs": [
        {
          "internalType": "string",
          "name": "name",
          "type": "string"
        },
        {
          "internalType": "string",
          "name": "party",
          "type": "string"
        },
        {
          "internalType": "string",
          "name": "election",
          "type": "string"
        },
        {
          "internalType": "uint256",
          "name": "age",
          "type": "uint256"
        },
        {
          "internalType": "string",
          "name": "email",
          "type": "string"
        },
        {
          "internalType": "string",
          "name": "idNo",
          "type": "string"
        },
        {
          "internalType": "uint256",
          "name": "totalVoteCount",
          "type": "uint256"
        }
      ],
      "stateMutability": "view",
      "type": "function",
      "constant": true
    },
    {
      "inputs": [],
      "name": "candidatesCount",
      "outputs": [
        {
          "internalType": "uint256",
          "name": "",
          "type": "uint256"
        }
      ],
      "stateMutability": "view",
      "type": "function",
      "constant": true
    },
    {
      "inputs": [
        {
          "internalType": "string",
          "name": "",
          "type": "string"
        }
      ],
      "name": "mintingStatus",
      "outputs": [
        {
          "internalType": "bool",
          "name": "",
          "type": "bool"
        }
      ],
      "stateMutability": "view",
      "type": "function",
      "constant": true
    },
    {
      "inputs": [],
      "name": "owner",
      "outputs": [
        {
          "internalType": "address",
          "name": "",
          "type": "address"
        }
      ],
      "stateMutability": "view",
      "type": "function",
      "constant": true
    },
    {
      "inputs": [
        {
          "internalType": "address",
          "name": "",
          "type": "address"
        }
      ],
      "name": "voters",
      "outputs": [
        {
          "internalType": "bool",
          "name": "",
          "type": "bool"
        }
      ],
      "stateMutability": "view",
      "type": "function",
      "constant": true
    },
    {
      "inputs": [
        {
          "internalType": "string",
          "name": "_name",
          "type": "string"
        },
        {
          "internalType": "string",
          "name": "_party",
          "type": "string"
        },
        {
          "internalType": "string",
          "name": "_election",
          "type": "string"
        },
        {
          "internalType": "uint256",
          "name": "_age",
          "type": "uint256"
        },
        {
          "internalType": "string",
          "name": "_email",
          "type": "string"
        },
        {
          "internalType": "string",
          "name": "_idNo",
          "type": "string"
        }
      ],
      "name": "addCandidate",
      "outputs": [],
      "stateMutability": "nonpayable",
      "type": "function"
    },
    {
      "inputs": [
        {
          "internalType": "string",
          "name": "_candidateId",
          "type": "string"
        },
        {
          "internalType": "string",
          "name": "_province",
          "type": "string"
        }
      ],
      "name": "vote",
      "outputs": [],
      "stateMutability": "nonpayable",
      "type": "function"
    },
    {
      "inputs": [
        {
          "internalType": "string",
          "name": "_province",
          "type": "string"
        }
      ],
      "name": "mintVotes",
      "outputs": [],
      "stateMutability": "nonpayable",
      "type": "function"
    },
    {
      "inputs": [
        {
          "internalType": "string",
          "name": "_province",
          "type": "string"
        }
      ],
      "name": "getWinnerInProvince",
      "outputs": [
        {
          "internalType": "string",
          "name": "name",
          "type": "string"
        },
        {
          "internalType": "string",
          "name": "party",
          "type": "string"
        },
        {
          "internalType": "uint256",
          "name": "voteCount",
          "type": "uint256"
        }
      ],
      "stateMutability": "view",
      "type": "function",
      "constant": true
    },
    {
      "inputs": [
        {
          "internalType": "string",
          "name": "_candidateId",
          "type": "string"
        },
        {
          "internalType": "string",
          "name": "_province",
          "type": "string"
        }
      ],
      "name": "getCandidateVotesInProvince",
      "outputs": [
        {
          "internalType": "uint256",
          "name": "",
          "type": "uint256"
        }
      ],
      "stateMutability": "view",
      "type": "function",
      "constant": true
    },
    {
      "inputs": [
        {
          "internalType": "string",
          "name": "_candidateId",
          "type": "string"
        }
      ],
      "name": "getTotalVotesForCandidate",
      "outputs": [
        {
          "internalType": "uint256",
          "name": "",
          "type": "uint256"
        }
      ],
      "stateMutability": "view",
      "type": "function",
      "constant": true
    },
    {
      "inputs": [
        {
          "internalType": "address",
          "name": "_admin",
          "type": "address"
        }
      ],
      "name": "addAdmin",
      "outputs": [],
      "stateMutability": "nonpayable",
      "type": "function"
    },
    {
      "inputs": [
        {
          "internalType": "address",
          "name": "_admin",
          "type": "address"
        }
      ],
      "name": "removeAdmin",
      "outputs": [],
      "stateMutability": "nonpayable",
      "type": "function"
    },
    {
      "inputs": [
        {
          "internalType": "string",
          "name": "_province",
          "type": "string"
        }
      ],
      "name": "startMinting",
      "outputs": [],
      "stateMutability": "nonpayable",
      "type": "function"
    },
    {
      "inputs": [
        {
          "internalType": "address",
          "name": "_voter",
          "type": "address"
        }
      ],
      "name": "hasVoted",
      "outputs": [
        {
          "internalType": "bool",
          "name": "",
          "type": "bool"
        }
      ],
      "stateMutability": "view",
      "type": "function",
      "constant": true
    }
  ],
  "bytecode": "0x60806040523480156200001157600080fd5b5033600760006101000a81548173ffffffffffffffffffffffffffffffffffffffff021916908373ffffffffffffffffffffffffffffffffffffffff160217905550600160026000600760009054906101000a900473ffffffffffffffffffffffffffffffffffffffff1673ffffffffffffffffffffffffffffffffffffffff1673ffffffffffffffffffffffffffffffffffffffff16815260200190815260200160002060006101000a81548160ff0219169083151502179055507f8ffcdc15a283d706d38281f500270d8b5a656918f555de0913d7455e3e6bc1bf600760009054906101000a900473ffffffffffffffffffffffffffffffffffffffff166040516200012091906200013f565b60405180910390a162000190565b62000139816200015c565b82525050565b60006020820190506200015660008301846200012e565b92915050565b6000620001698262000170565b9050919050565b600073ffffffffffffffffffffffffffffffffffffffff82169050919050565b61247e80620001a06000396000f3fe608060405234801561001057600080fd5b50600436106101165760003560e01c80638da5cb5b116100a2578063c5539cc211610071578063c5539cc214610303578063c5900b4f14610339578063dc87ae491461036b578063e07641851461039b578063e8d5940d146103cb57610116565b80638da5cb5b1461025557806397e70cc914610273578063a3ec138d146102a3578063befce1e1146102d357610116565b80632d35a8a2116100e95780632d35a8a2146101b3578063429b62e5146101d157806370480275146102015780637f9bf9e41461021d57806386fdb7f91461023957610116565b8063030161301461011b57806309eef43e1461014b5780630c2aa8c91461017b5780631785f53c14610197575b600080fd5b61013560048036038101906101309190611b9f565b6103e7565b6040516101429190611f1e565b60405180910390f35b610165600480360381019061016091906119c8565b610493565b6040516101729190611f03565b60405180910390f35b610195600480360381019061019091906119f1565b6104e8565b005b6101b160048036038101906101ac91906119c8565b6107d5565b005b6101bb61098f565b6040516101c8919061217e565b60405180910390f35b6101eb60048036038101906101e691906119c8565b610995565b6040516101f89190611f03565b60405180910390f35b61021b600480360381019061021691906119c8565b6109b5565b005b610237600480360381019061023291906119f1565b610b70565b005b610253600480360381019061024e9190611a9e565b610ca4565b005b61025d610e8c565b60405161026a9190611ee8565b60405180910390f35b61028d600480360381019061028891906119f1565b610eb2565b60405161029a9190611f03565b60405180910390f35b6102bd60048036038101906102b891906119c8565b610ee8565b6040516102ca9190611f03565b60405180910390f35b6102ed60048036038101906102e89190611a32565b610f08565b6040516102fa919061217e565b60405180910390f35b61031d600480360381019061031891906119f1565b610fbd565b6040516103309796959493929190611f77565b60405180910390f35b610353600480360381019061034e91906119f1565b6112bd565b60405161036293929190612009565b60405180910390f35b610385600480360381019061038091906119f1565b611578565b604051610392919061217e565b60405180910390f35b6103b560048036038101906103b09190611a32565b611613565b6040516103c2919061217e565b60405180910390f35b6103e560048036038101906103e09190611a32565b611664565b005b600581815481106103f757600080fd5b90600052602060002001600091509050805461041290612301565b80601f016020809104026020016040519081016040528092919081815260200182805461043e90612301565b801561048b5780601f106104605761010080835404028352916020019161048b565b820191906000526020600020905b81548152906001019060200180831161046e57829003601f168201915b505050505081565b60008060008373ffffffffffffffffffffffffffffffffffffffff1673ffffffffffffffffffffffffffffffffffffffff16815260200190815260200160002060009054906101000a900460ff169050919050565b600260003373ffffffffffffffffffffffffffffffffffffffff1673ffffffffffffffffffffffffffffffffffffffff16815260200190815260200160002060009054906101000a900460ff16610574576040517f08c379a000000000000000000000000000000000000000000000000000000000815260040161056b906120fe565b60405180910390fd5b806004816040516105859190611ed1565b908152602001604051809103902060009054906101000a900460ff16156105e1576040517f08c379a00000000000000000000000000000000000000000000000000000000081526004016105d89061209e565b60405180910390fd5b6000805b60058054905081101561075f5760006005828154811061062e577f4e487b7100000000000000000000000000000000000000000000000000000000600052603260045260246000fd5b90600052602060002001805461064390612301565b80601f016020809104026020016040519081016040528092919081815260200182805461066f90612301565b80156106bc5780601f10610691576101008083540402835291602001916106bc565b820191906000526020600020905b81548152906001019060200180831161069f57829003601f168201915b505050505090506003816040516106d39190611ed1565b9081526020016040518091039020856040516106ef9190611ed1565b908152602001604051809103902054836107099190612221565b9250600060038260405161071d9190611ed1565b9081526020016040518091039020866040516107399190611ed1565b90815260200160405180910390208190555050808061075790612333565b9150506105e5565b5060006004846040516107729190611ed1565b908152602001604051809103902060006101000a81548160ff0219169083151502179055507fe9f00b1bc3ddcb5445189f8392f233466b7ba29b4e9719de7c6f33931fdbafc183826040516107c892919061204e565b60405180910390a1505050565b600760009054906101000a900473ffffffffffffffffffffffffffffffffffffffff1673ffffffffffffffffffffffffffffffffffffffff163373ffffffffffffffffffffffffffffffffffffffff1614610865576040517f08c379a000000000000000000000000000000000000000000000000000000000815260040161085c9061207e565b60405180910390fd5b600260008273ffffffffffffffffffffffffffffffffffffffff1673ffffffffffffffffffffffffffffffffffffffff16815260200190815260200160002060009054906101000a900460ff166108f1576040517f08c379a00000000000000000000000000000000000000000000000000000000081526004016108e89061211e565b60405180910390fd5b6000600260008373ffffffffffffffffffffffffffffffffffffffff1673ffffffffffffffffffffffffffffffffffffffff16815260200190815260200160002060006101000a81548160ff0219169083151502179055508073ffffffffffffffffffffffffffffffffffffffff167fa3b62bc36326052d97ea62d63c3d60308ed4c3ea8ac079dd8499f1e9c4f80c0f60405160405180910390a250565b60065481565b60026020528060005260406000206000915054906101000a900460ff1681565b600760009054906101000a900473ffffffffffffffffffffffffffffffffffffffff1673ffffffffffffffffffffffffffffffffffffffff163373ffffffffffffffffffffffffffffffffffffffff1614610a45576040517f08c379a0000000000000000000000000000000000000000000000000000000008152600401610a3c9061207e565b60405180910390fd5b600260008273ffffffffffffffffffffffffffffffffffffffff1673ffffffffffffffffffffffffffffffffffffffff16815260200190815260200160002060009054906101000a900460ff1615610ad2576040517f08c379a0000000000000000000000000000000000000000000000000000000008152600401610ac9906120be565b60405180910390fd5b6001600260008373ffffffffffffffffffffffffffffffffffffffff1673ffffffffffffffffffffffffffffffffffffffff16815260200190815260200160002060006101000a81548160ff0219169083151502179055508073ffffffffffffffffffffffffffffffffffffffff167f44d6d25963f097ad14f29f06854a01f575648a1ef82f30e562ccd3889717e33960405160405180910390a250565b600260003373ffffffffffffffffffffffffffffffffffffffff1673ffffffffffffffffffffffffffffffffffffffff16815260200190815260200160002060009054906101000a900460ff16610bfc576040517f08c379a0000000000000000000000000000000000000000000000000000000008152600401610bf3906120fe565b60405180910390fd5b80600481604051610c0d9190611ed1565b908152602001604051809103902060009054906101000a900460ff1615610c69576040517f08c379a0000000000000000000000000000000000000000000000000000000008152600401610c609061209e565b60405180910390fd5b6001600483604051610c7b9190611ed1565b908152602001604051809103902060006101000a81548160ff0219169083151502179055505050565b600260003373ffffffffffffffffffffffffffffffffffffffff1673ffffffffffffffffffffffffffffffffffffffff16815260200190815260200160002060009054906101000a900460ff16610d30576040517f08c379a0000000000000000000000000000000000000000000000000000000008152600401610d27906120fe565b60405180910390fd5b60006040518060e001604052808881526020018781526020018681526020018581526020018481526020018381526020016000815250905080600183604051610d799190611ed1565b90815260200160405180910390206000820151816000019080519060200190610da3929190611893565b506020820151816001019080519060200190610dc0929190611893565b506040820151816002019080519060200190610ddd929190611893565b50606082015181600301556080820151816004019080519060200190610e04929190611893565b5060a0820151816005019080519060200190610e21929190611893565b5060c08201518160060155905050600582908060018154018082558091505060019003906000526020600020016000909190919091509080519060200190610e6a929190611893565b5060066000815480929190610e7e90612333565b919050555050505050505050565b600760009054906101000a900473ffffffffffffffffffffffffffffffffffffffff1681565b6004818051602081018201805184825260208301602085012081835280955050505050506000915054906101000a900460ff1681565b60006020528060005260406000206000915054906101000a900460ff1681565b600080600184604051610f1b9190611ed1565b90815260200160405180910390206005018054610f3790612301565b90501415610f7a576040517f08c379a0000000000000000000000000000000000000000000000000000000008152600401610f71906120de565b60405180910390fd5b600383604051610f8a9190611ed1565b908152602001604051809103902082604051610fa69190611ed1565b908152602001604051809103902054905092915050565b600181805160208101820180518482526020830160208501208183528095505050505050600091509050806000018054610ff690612301565b80601f016020809104026020016040519081016040528092919081815260200182805461102290612301565b801561106f5780601f106110445761010080835404028352916020019161106f565b820191906000526020600020905b81548152906001019060200180831161105257829003601f168201915b50505050509080600101805461108490612301565b80601f01602080910402602001604051908101604052809291908181526020018280546110b090612301565b80156110fd5780601f106110d2576101008083540402835291602001916110fd565b820191906000526020600020905b8154815290600101906020018083116110e057829003601f168201915b50505050509080600201805461111290612301565b80601f016020809104026020016040519081016040528092919081815260200182805461113e90612301565b801561118b5780601f106111605761010080835404028352916020019161118b565b820191906000526020600020905b81548152906001019060200180831161116e57829003601f168201915b5050505050908060030154908060040180546111a690612301565b80601f01602080910402602001604051908101604052809291908181526020018280546111d290612301565b801561121f5780601f106111f45761010080835404028352916020019161121f565b820191906000526020600020905b81548152906001019060200180831161120257829003601f168201915b50505050509080600501805461123490612301565b80601f016020809104026020016040519081016040528092919081815260200182805461126090612301565b80156112ad5780601f10611282576101008083540402835291602001916112ad565b820191906000526020600020905b81548152906001019060200180831161129057829003601f168201915b5050505050908060060154905087565b60608060008060009050606060005b60058054905081101561140d57600060058281548110611315577f4e487b7100000000000000000000000000000000000000000000000000000000600052603260045260246000fd5b90600052602060002001805461132a90612301565b80601f016020809104026020016040519081016040528092919081815260200182805461135690612301565b80156113a35780601f10611378576101008083540402835291602001916113a3565b820191906000526020600020905b81548152906001019060200180831161138657829003601f168201915b5050505050905060006003826040516113bc9190611ed1565b9081526020016040518091039020896040516113d89190611ed1565b9081526020016040518091039020549050848111156113f8578094508193505b5050808061140590612333565b9150506112cc565b5060018160405161141e9190611ed1565b908152602001604051809103902060000160018260405161143f9190611ed1565b90815260200160405180910390206001018382805461145d90612301565b80601f016020809104026020016040519081016040528092919081815260200182805461148990612301565b80156114d65780601f106114ab576101008083540402835291602001916114d6565b820191906000526020600020905b8154815290600101906020018083116114b957829003601f168201915b505050505092508180546114e990612301565b80601f016020809104026020016040519081016040528092919081815260200182805461151590612301565b80156115625780601f1061153757610100808354040283529160200191611562565b820191906000526020600020905b81548152906001019060200180831161154557829003601f168201915b5050505050915094509450945050509193909250565b60008060018360405161158b9190611ed1565b908152602001604051809103902060050180546115a790612301565b905014156115ea576040517f08c379a00000000000000000000000000000000000000000000000000000000081526004016115e1906120de565b60405180910390fd5b6001826040516115fa9190611ed1565b9081526020016040518091039020600601549050919050565b60038280516020810182018051848252602083016020850120818352809550505050505081805160208101820180518482526020830160208501208183528095505050505050600091509150505481565b6000803373ffffffffffffffffffffffffffffffffffffffff1673ffffffffffffffffffffffffffffffffffffffff16815260200190815260200160002060009054906101000a900460ff16156116f0576040517f08c379a00000000000000000000000000000000000000000000000000000000081526004016116e79061215e565b60405180910390fd5b60006001836040516117029190611ed1565b9081526020016040518091039020600501805461171e90612301565b90501415611761576040517f08c379a00000000000000000000000000000000000000000000000000000000081526004016117589061213e565b60405180910390fd5b60016000803373ffffffffffffffffffffffffffffffffffffffff1673ffffffffffffffffffffffffffffffffffffffff16815260200190815260200160002060006101000a81548160ff0219169083151502179055506003826040516117c89190611ed1565b9081526020016040518091039020816040516117e49190611ed1565b9081526020016040518091039020600081548092919061180390612333565b91905055506001826040516118189190611ed1565b9081526020016040518091039020600601600081548092919061183a90612333565b91905055503373ffffffffffffffffffffffffffffffffffffffff167f63e55e680c764f31db01f4a9c5b0b476bb0a9959145b2ec06bcfcccc9b096c528383604051611887929190611f40565b60405180910390a25050565b82805461189f90612301565b90600052602060002090601f0160209004810192826118c15760008555611908565b82601f106118da57805160ff1916838001178555611908565b82800160010185558215611908579182015b828111156119075782518255916020019190600101906118ec565b5b5090506119159190611919565b5090565b5b8082111561193257600081600090555060010161191a565b5090565b6000611949611944846121ca565b612199565b90508281526020810184848401111561196157600080fd5b61196c8482856122bf565b509392505050565b6000813590506119838161241a565b92915050565b600082601f83011261199a57600080fd5b81356119aa848260208601611936565b91505092915050565b6000813590506119c281612431565b92915050565b6000602082840312156119da57600080fd5b60006119e884828501611974565b91505092915050565b600060208284031215611a0357600080fd5b600082013567ffffffffffffffff811115611a1d57600080fd5b611a2984828501611989565b91505092915050565b60008060408385031215611a4557600080fd5b600083013567ffffffffffffffff811115611a5f57600080fd5b611a6b85828601611989565b925050602083013567ffffffffffffffff811115611a8857600080fd5b611a9485828601611989565b9150509250929050565b60008060008060008060c08789031215611ab757600080fd5b600087013567ffffffffffffffff811115611ad157600080fd5b611add89828a01611989565b965050602087013567ffffffffffffffff811115611afa57600080fd5b611b0689828a01611989565b955050604087013567ffffffffffffffff811115611b2357600080fd5b611b2f89828a01611989565b9450506060611b4089828a016119b3565b935050608087013567ffffffffffffffff811115611b5d57600080fd5b611b6989828a01611989565b92505060a087013567ffffffffffffffff811115611b8657600080fd5b611b9289828a01611989565b9150509295509295509295565b600060208284031215611bb157600080fd5b6000611bbf848285016119b3565b91505092915050565b611bd181612277565b82525050565b611be081612289565b82525050565b6000611bf1826121fa565b611bfb8185612205565b9350611c0b8185602086016122ce565b611c1481612409565b840191505092915050565b6000611c2a826121fa565b611c348185612216565b9350611c448185602086016122ce565b80840191505092915050565b6000611c5d602683612205565b91507f4f6e6c7920746865206f776e65722063616e20706572666f726d20746869732060008301527f616374696f6e00000000000000000000000000000000000000000000000000006020830152604082019050919050565b6000611cc3603283612205565b91507f4d696e74696e672069732063757272656e746c7920696e2070726f677265737360008301527f20666f7220746869732070726f76696e636500000000000000000000000000006020830152604082019050919050565b6000611d29601b83612205565b91507f4164647265737320697320616c726561647920616e2061646d696e00000000006000830152602082019050919050565b6000611d69601183612205565b91507f496e76616c69642063616e6469646174650000000000000000000000000000006000830152602082019050919050565b6000611da9602383612205565b91507f4f6e6c792061646d696e732063616e20706572666f726d20746869732061637460008301527f696f6e00000000000000000000000000000000000000000000000000000000006020830152604082019050919050565b6000611e0f601783612205565b91507f41646472657373206973206e6f7420616e2061646d696e0000000000000000006000830152602082019050919050565b6000611e4f601483612205565b91507f496e76616c69642063616e6469646174652049440000000000000000000000006000830152602082019050919050565b6000611e8f601683612205565b91507f596f75206861766520616c726561647920766f746564000000000000000000006000830152602082019050919050565b611ecb816122b5565b82525050565b6000611edd8284611c1f565b915081905092915050565b6000602082019050611efd6000830184611bc8565b92915050565b6000602082019050611f186000830184611bd7565b92915050565b60006020820190508181036000830152611f388184611be6565b905092915050565b60006040820190508181036000830152611f5a8185611be6565b90508181036020830152611f6e8184611be6565b90509392505050565b600060e0820190508181036000830152611f91818a611be6565b90508181036020830152611fa58189611be6565b90508181036040830152611fb98188611be6565b9050611fc86060830187611ec2565b8181036080830152611fda8186611be6565b905081810360a0830152611fee8185611be6565b9050611ffd60c0830184611ec2565b98975050505050505050565b600060608201905081810360008301526120238186611be6565b905081810360208301526120378185611be6565b90506120466040830184611ec2565b949350505050565b600060408201905081810360008301526120688185611be6565b90506120776020830184611ec2565b9392505050565b6000602082019050818103600083015261209781611c50565b9050919050565b600060208201905081810360008301526120b781611cb6565b9050919050565b600060208201905081810360008301526120d781611d1c565b9050919050565b600060208201905081810360008301526120f781611d5c565b9050919050565b6000602082019050818103600083015261211781611d9c565b9050919050565b6000602082019050818103600083015261213781611e02565b9050919050565b6000602082019050818103600083015261215781611e42565b9050919050565b6000602082019050818103600083015261217781611e82565b9050919050565b60006020820190506121936000830184611ec2565b92915050565b6000604051905081810181811067ffffffffffffffff821117156121c0576121bf6123da565b5b8060405250919050565b600067ffffffffffffffff8211156121e5576121e46123da565b5b601f19601f8301169050602081019050919050565b600081519050919050565b600082825260208201905092915050565b600081905092915050565b600061222c826122b5565b9150612237836122b5565b9250827fffffffffffffffffffffffffffffffffffffffffffffffffffffffffffffffff0382111561226c5761226b61237c565b5b828201905092915050565b600061228282612295565b9050919050565b60008115159050919050565b600073ffffffffffffffffffffffffffffffffffffffff82169050919050565b6000819050919050565b82818337600083830152505050565b60005b838110156122ec5780820151818401526020810190506122d1565b838111156122fb576000848401525b50505050565b6000600282049050600182168061231957607f821691505b6020821081141561232d5761232c6123ab565b5b50919050565b600061233e826122b5565b91507fffffffffffffffffffffffffffffffffffffffffffffffffffffffffffffffff8214156123715761237061237c565b5b600182019050919050565b7f4e487b7100000000000000000000000000000000000000000000000000000000600052601160045260246000fd5b7f4e487b7100000000000000000000000000000000000000000000000000000000600052602260045260246000fd5b7f4e487b7100000000000000000000000000000000000000000000000000000000600052604160045260246000fd5b6000601f19601f8301169050919050565b61242381612277565b811461242e57600080fd5b50565b61243a816122b5565b811461244557600080fd5b5056fea264697066735822122076d93d7da2dbacfa1a86eb7b4f3ca33497029ed1dd973c139a9be4ae35ddb50364736f6c63430008000033",
  "immutableReferences": {},
  "source": "// SPDX-License-Identifier: MIT\r\npragma solidity ^0.8.0;\r\n\r\ncontract VotingContract {\r\n    struct Candidate {\r\n        string name;\r\n        string party;\r\n        string election;\r\n        uint age;\r\n        string email;\r\n        string idNo;\r\n        uint totalVoteCount; // Keeps track of the total votes for this candidate\r\n    }\r\n\r\n    mapping(address => bool) public voters;\r\n    mapping(string => Candidate) public candidates;  // Mapping from candidate ID (string) to Candidate\r\n    mapping(address => bool) public admins;\r\n    mapping(string => mapping(string => uint256)) public candidateProvinceVotes;  // Store votes by candidate and province\r\n    mapping(string => bool) public mintingStatus; // Tracks if minting is in progress for a province\r\n    string[] public candidateIds; // Array of candidate IDs\r\n    uint256 public candidatesCount;  // Total number of candidates\r\n    address public owner;\r\n\r\n    event VoteCast(address indexed voter, string candidateId, string province);\r\n    event AdminAdded(address indexed newAdmin);\r\n    event AdminRemoved(address indexed removedAdmin);\r\n    event VotesMinted(string province, uint totalVotes);\r\n    event ContractDeployed(address owner); // New event for debugging\r\n\r\n    modifier onlyOwner() {\r\n        require(msg.sender == owner, \"Only the owner can perform this action\");\r\n        _;\r\n    }\r\n\r\n    modifier onlyAdmin() {\r\n        require(admins[msg.sender], \"Only admins can perform this action\");\r\n        _;\r\n    }\r\n\r\n    modifier notMinting(string memory _province) {\r\n        require(!mintingStatus[_province], \"Minting is currently in progress for this province\");\r\n        _;\r\n    }\r\n\r\n    constructor() {\r\n        owner = msg.sender;\r\n        admins[owner] = true;\r\n        emit ContractDeployed(owner); // Log contract deployment\r\n    }\r\n\r\n    function addCandidate(\r\n        string memory _name,\r\n        string memory _party,\r\n        string memory _election,\r\n        uint _age,\r\n        string memory _email,\r\n        string memory _idNo\r\n    ) public onlyAdmin {\r\n        Candidate memory newCandidate = Candidate(_name, _party, _election, _age, _email, _idNo, 0);\r\n        candidates[_idNo] = newCandidate;\r\n        candidateIds.push(_idNo);  // Add candidate ID to array for tracking\r\n        candidatesCount++;\r\n    }\r\n\r\n    function vote(string memory _candidateId, string memory _province) public {\r\n        require(!voters[msg.sender], \"You have already voted\");\r\n        require(bytes(candidates[_candidateId].idNo).length != 0, \"Invalid candidate ID\");\r\n\r\n        voters[msg.sender] = true;\r\n        candidateProvinceVotes[_candidateId][_province]++;\r\n        candidates[_candidateId].totalVoteCount++;\r\n\r\n        emit VoteCast(msg.sender, _candidateId, _province);\r\n    }\r\n\r\n    function mintVotes(string memory _province) public onlyAdmin notMinting(_province) {\r\n        uint totalVotes = 0;\r\n\r\n        for (uint i = 0; i < candidateIds.length; i++) {\r\n            string memory candidateId = candidateIds[i];\r\n            totalVotes += candidateProvinceVotes[candidateId][_province];\r\n            candidateProvinceVotes[candidateId][_province] = 0;\r\n        }\r\n\r\n        mintingStatus[_province] = false;\r\n        emit VotesMinted(_province, totalVotes);\r\n    }\r\n\r\n    function getWinnerInProvince(string memory _province) public view returns (string memory name, string memory party, uint voteCount) {\r\n        uint maxVotes = 0;\r\n        string memory winningCandidateId;\r\n\r\n        for (uint i = 0; i < candidateIds.length; i++) {\r\n            string memory candidateId = candidateIds[i];\r\n            uint candidateVotes = candidateProvinceVotes[candidateId][_province];\r\n            if (candidateVotes > maxVotes) {\r\n                maxVotes = candidateVotes;\r\n                winningCandidateId = candidateId;\r\n            }\r\n        }\r\n\r\n        return (candidates[winningCandidateId].name, candidates[winningCandidateId].party, maxVotes);\r\n    }\r\n\r\n    function getCandidateVotesInProvince(string memory _candidateId, string memory _province) public view returns (uint) {\r\n        require(bytes(candidates[_candidateId].idNo).length != 0, \"Invalid candidate\");\r\n        return candidateProvinceVotes[_candidateId][_province];\r\n    }\r\n\r\n    function getTotalVotesForCandidate(string memory _candidateId) public view returns (uint) {\r\n        require(bytes(candidates[_candidateId].idNo).length != 0, \"Invalid candidate\");\r\n        return candidates[_candidateId].totalVoteCount;\r\n    }\r\n\r\n    function addAdmin(address _admin) public onlyOwner {\r\n        require(!admins[_admin], \"Address is already an admin\");\r\n        admins[_admin] = true;\r\n        emit AdminAdded(_admin);\r\n    }\r\n\r\n    function removeAdmin(address _admin) public onlyOwner {\r\n        require(admins[_admin], \"Address is not an admin\");\r\n        admins[_admin] = false;\r\n        emit AdminRemoved(_admin);\r\n    }\r\n\r\n    function startMinting(string memory _province) public onlyAdmin notMinting(_province) {\r\n        mintingStatus[_province] = true; // Start minting for the province\r\n    }\r\n\r\n    function hasVoted(address _voter) public view returns (bool) {\r\n        return voters[_voter];\r\n    }\r\n}\r\n",
  "sourcePath": "C:\\blockchain-voting-system\\blockchain\\contracts\\voting.sol",
  "compiler": {
    "name": "solc",
    "version": "0.8.0+commit.c7dfd78e.Emscripten.clang"
  },
  "schemaVersion": "3.4.16",
  "updatedAt": "2024-11-06T09:17:04.204Z",
  "networkType": "ethereum",
  "devdoc": {
    "kind": "dev",
    "methods": {},
    "version": 1
  },
  "userdoc": {
    "kind": "user",
    "methods": {},
    "version": 1
  }
}